{
  "_format": "hh-sol-artifact-1",
  "contractName": "Sbt",
  "sourceName": "contracts/Sbt.sol",
  "abi": [
    {
      "inputs": [
        {
          "internalType": "string",
          "name": "_name",
          "type": "string"
        },
        {
          "internalType": "string",
          "name": "_symbol",
          "type": "string"
        },
        {
          "internalType": "bool",
          "name": "_isLocked",
          "type": "bool"
        }
      ],
      "stateMutability": "nonpayable",
      "type": "constructor"
    },
    {
      "inputs": [],
      "name": "ErrLocked",
      "type": "error"
    },
    {
      "inputs": [],
      "name": "ErrNotFound",
      "type": "error"
    },
    {
      "anonymous": false,
      "inputs": [
        {
          "indexed": true,
          "internalType": "address",
          "name": "owner",
          "type": "address"
        },
        {
          "indexed": true,
          "internalType": "address",
          "name": "approved",
          "type": "address"
        },
        {
          "indexed": true,
          "internalType": "uint256",
          "name": "tokenId",
          "type": "uint256"
        }
      ],
      "name": "Approval",
      "type": "event"
    },
    {
      "anonymous": false,
      "inputs": [
        {
          "indexed": true,
          "internalType": "address",
          "name": "owner",
          "type": "address"
        },
        {
          "indexed": true,
          "internalType": "address",
          "name": "operator",
          "type": "address"
        },
        {
          "indexed": false,
          "internalType": "bool",
          "name": "approved",
          "type": "bool"
        }
      ],
      "name": "ApprovalForAll",
      "type": "event"
    },
    {
      "anonymous": false,
      "inputs": [
        {
          "indexed": false,
          "internalType": "uint256",
          "name": "tokenId",
          "type": "uint256"
        }
      ],
      "name": "Locked",
      "type": "event"
    },
    {
      "anonymous": false,
      "inputs": [
        {
          "indexed": true,
          "internalType": "address",
          "name": "from",
          "type": "address"
        },
        {
          "indexed": true,
          "internalType": "address",
          "name": "to",
          "type": "address"
        },
        {
          "indexed": true,
          "internalType": "uint256",
          "name": "tokenId",
          "type": "uint256"
        }
      ],
      "name": "Transfer",
      "type": "event"
    },
    {
      "anonymous": false,
      "inputs": [
        {
          "indexed": false,
          "internalType": "uint256",
          "name": "tokenId",
          "type": "uint256"
        }
      ],
      "name": "Unlocked",
      "type": "event"
    },
    {
      "inputs": [
        {
          "internalType": "address",
          "name": "approved",
          "type": "address"
        },
        {
          "internalType": "uint256",
          "name": "tokenId",
          "type": "uint256"
        }
      ],
      "name": "approve",
      "outputs": [],
      "stateMutability": "nonpayable",
      "type": "function"
    },
    {
      "inputs": [
        {
          "internalType": "address",
          "name": "owner",
          "type": "address"
        }
      ],
      "name": "balanceOf",
      "outputs": [
        {
          "internalType": "uint256",
          "name": "",
          "type": "uint256"
        }
      ],
      "stateMutability": "view",
      "type": "function"
    },
    {
      "inputs": [
        {
          "internalType": "uint256",
          "name": "tokenId",
          "type": "uint256"
        }
      ],
      "name": "getApproved",
      "outputs": [
        {
          "internalType": "address",
          "name": "",
          "type": "address"
        }
      ],
      "stateMutability": "view",
      "type": "function"
    },
    {
      "inputs": [
        {
          "internalType": "address",
          "name": "owner",
          "type": "address"
        },
        {
          "internalType": "address",
          "name": "operator",
          "type": "address"
        }
      ],
      "name": "isApprovedForAll",
      "outputs": [
        {
          "internalType": "bool",
          "name": "",
          "type": "bool"
        }
      ],
      "stateMutability": "view",
      "type": "function"
    },
    {
      "inputs": [
        {
          "internalType": "uint256",
          "name": "tokenId",
          "type": "uint256"
        }
      ],
      "name": "locked",
      "outputs": [
        {
          "internalType": "bool",
          "name": "",
          "type": "bool"
        }
      ],
      "stateMutability": "view",
      "type": "function"
    },
    {
      "inputs": [],
      "name": "name",
      "outputs": [
        {
          "internalType": "string",
          "name": "",
          "type": "string"
        }
      ],
      "stateMutability": "view",
      "type": "function"
    },
    {
      "inputs": [
        {
          "internalType": "uint256",
          "name": "tokenId",
          "type": "uint256"
        }
      ],
      "name": "ownerOf",
      "outputs": [
        {
          "internalType": "address",
          "name": "",
          "type": "address"
        }
      ],
      "stateMutability": "view",
      "type": "function"
    },
    {
      "inputs": [],
      "name": "safeMint",
      "outputs": [],
      "stateMutability": "payable",
      "type": "function"
    },
    {
      "inputs": [
        {
          "internalType": "address",
          "name": "from",
          "type": "address"
        },
        {
          "internalType": "address",
          "name": "to",
          "type": "address"
        },
        {
          "internalType": "uint256",
          "name": "tokenId",
          "type": "uint256"
        }
      ],
      "name": "safeTransferFrom",
      "outputs": [],
      "stateMutability": "nonpayable",
      "type": "function"
    },
    {
      "inputs": [
        {
          "internalType": "address",
          "name": "from",
          "type": "address"
        },
        {
          "internalType": "address",
          "name": "to",
          "type": "address"
        },
        {
          "internalType": "uint256",
          "name": "tokenId",
          "type": "uint256"
        },
        {
          "internalType": "bytes",
          "name": "data",
          "type": "bytes"
        }
      ],
      "name": "safeTransferFrom",
      "outputs": [],
      "stateMutability": "nonpayable",
      "type": "function"
    },
    {
      "inputs": [
        {
          "internalType": "address",
          "name": "operator",
          "type": "address"
        },
        {
          "internalType": "bool",
          "name": "approved",
          "type": "bool"
        }
      ],
      "name": "setApprovalForAll",
      "outputs": [],
      "stateMutability": "nonpayable",
      "type": "function"
    },
    {
      "inputs": [
        {
          "internalType": "bytes4",
          "name": "interfaceId",
          "type": "bytes4"
        }
      ],
      "name": "supportsInterface",
      "outputs": [
        {
          "internalType": "bool",
          "name": "",
          "type": "bool"
        }
      ],
      "stateMutability": "view",
      "type": "function"
    },
    {
      "inputs": [],
      "name": "symbol",
      "outputs": [
        {
          "internalType": "string",
          "name": "",
          "type": "string"
        }
      ],
      "stateMutability": "view",
      "type": "function"
    },
    {
      "inputs": [
        {
          "internalType": "uint256",
          "name": "tokenId",
          "type": "uint256"
        }
      ],
      "name": "tokenURI",
      "outputs": [
        {
          "internalType": "string",
          "name": "",
          "type": "string"
        }
      ],
      "stateMutability": "view",
      "type": "function"
    },
    {
      "inputs": [
        {
          "internalType": "address",
          "name": "_owner",
          "type": "address"
        }
      ],
      "name": "tokensOfOwner",
      "outputs": [
        {
          "components": [
            {
              "internalType": "uint256",
              "name": "tokenId",
              "type": "uint256"
            },
            {
              "internalType": "string",
              "name": "name",
              "type": "string"
            },
            {
              "internalType": "string",
              "name": "symbol",
              "type": "string"
            },
            {
              "internalType": "string",
              "name": "uri",
              "type": "string"
            }
          ],
          "internalType": "struct Sbt.NFT[]",
          "name": "",
          "type": "tuple[]"
        }
      ],
      "stateMutability": "view",
      "type": "function"
    },
    {
      "inputs": [
        {
          "internalType": "address",
          "name": "from",
          "type": "address"
        },
        {
          "internalType": "address",
          "name": "to",
          "type": "address"
        },
        {
          "internalType": "uint256",
          "name": "tokenId",
          "type": "uint256"
        }
      ],
      "name": "transfer",
      "outputs": [],
      "stateMutability": "payable",
      "type": "function"
    },
    {
      "inputs": [
        {
          "internalType": "address",
          "name": "from",
          "type": "address"
        },
        {
          "internalType": "address",
          "name": "to",
          "type": "address"
        },
        {
          "internalType": "uint256",
          "name": "tokenId",
          "type": "uint256"
        }
      ],
      "name": "transferFrom",
      "outputs": [],
      "stateMutability": "nonpayable",
      "type": "function"
    }
  ],
  "bytecode": "0x6080604052604051806108a0016040528061086b81526020016200459761086b9139600a908162000031919062000391565b506040518060400160405280600d81526020017f3c2f746578743e3c2f7376673e00000000000000000000000000000000000000815250600b908162000078919062000391565b503480156200008657600080fd5b5060405162004e0238038062004e028339818101604052810190620000ac919062000619565b82828282828160009081620000c2919062000391565b508060019081620000d4919062000391565b50505080600760006101000a81548160ff02191690831515021790555050505080600760016101000a81548160ff021916908315150217905550505050620006b3565b600081519050919050565b7f4e487b7100000000000000000000000000000000000000000000000000000000600052604160045260246000fd5b7f4e487b7100000000000000000000000000000000000000000000000000000000600052602260045260246000fd5b600060028204905060018216806200019957607f821691505b602082108103620001af57620001ae62000151565b5b50919050565b60008190508160005260206000209050919050565b60006020601f8301049050919050565b600082821b905092915050565b600060088302620002197fffffffffffffffffffffffffffffffffffffffffffffffffffffffffffffffff82620001da565b620002258683620001da565b95508019841693508086168417925050509392505050565b6000819050919050565b6000819050919050565b6000620002726200026c62000266846200023d565b62000247565b6200023d565b9050919050565b6000819050919050565b6200028e8362000251565b620002a66200029d8262000279565b848454620001e7565b825550505050565b600090565b620002bd620002ae565b620002ca81848462000283565b505050565b5b81811015620002f257620002e6600082620002b3565b600181019050620002d0565b5050565b601f82111562000341576200030b81620001b5565b6200031684620001ca565b8101602085101562000326578190505b6200033e6200033585620001ca565b830182620002cf565b50505b505050565b600082821c905092915050565b6000620003666000198460080262000346565b1980831691505092915050565b600062000381838362000353565b9150826002028217905092915050565b6200039c8262000117565b67ffffffffffffffff811115620003b857620003b762000122565b5b620003c4825462000180565b620003d1828285620002f6565b600060209050601f831160018114620004095760008415620003f4578287015190505b62000400858262000373565b86555062000470565b601f1984166200041986620001b5565b60005b8281101562000443578489015182556001820191506020850194506020810190506200041c565b868310156200046357848901516200045f601f89168262000353565b8355505b6001600288020188555050505b505050505050565b6000604051905090565b600080fd5b600080fd5b600080fd5b600080fd5b6000601f19601f8301169050919050565b620004b28262000496565b810181811067ffffffffffffffff82111715620004d457620004d362000122565b5b80604052505050565b6000620004e962000478565b9050620004f78282620004a7565b919050565b600067ffffffffffffffff8211156200051a576200051962000122565b5b620005258262000496565b9050602081019050919050565b60005b838110156200055257808201518184015260208101905062000535565b60008484015250505050565b6000620005756200056f84620004fc565b620004dd565b90508281526020810184848401111562000594576200059362000491565b5b620005a184828562000532565b509392505050565b600082601f830112620005c157620005c06200048c565b5b8151620005d38482602086016200055e565b91505092915050565b60008115159050919050565b620005f381620005dc565b8114620005ff57600080fd5b50565b6000815190506200061381620005e8565b92915050565b60008060006060848603121562000635576200063462000482565b5b600084015167ffffffffffffffff81111562000656576200065562000487565b5b6200066486828701620005a9565b935050602084015167ffffffffffffffff81111562000688576200068762000487565b5b6200069686828701620005a9565b9250506040620006a98682870162000602565b9150509250925092565b613ed480620006c36000396000f3fe6080604052600436106100fe5760003560e01c806370a0823111610095578063b45a3c0e11610064578063b45a3c0e14610338578063b88d4fde14610375578063beabacc81461039e578063c87b56dd146103ba578063e985e9c5146103f7576100fe565b806370a082311461026a5780638462151c146102a757806395d89b41146102e4578063a22cb4651461030f576100fe565b806323b872dd116100d157806323b872dd146101d157806342842e0e146101fa5780636352211e146102235780636871ee4014610260576100fe565b806301ffc9a71461010357806306fdde0314610140578063081812fc1461016b578063095ea7b3146101a8575b600080fd5b34801561010f57600080fd5b5061012a600480360381019061012591906125ed565b610434565b6040516101379190612635565b60405180910390f35b34801561014c57600080fd5b506101556104ae565b60405161016291906126e0565b60405180910390f35b34801561017757600080fd5b50610192600480360381019061018d9190612738565b610540565b60405161019f91906127a6565b60405180910390f35b3480156101b457600080fd5b506101cf60048036038101906101ca91906127ed565b610586565b005b3480156101dd57600080fd5b506101f860048036038101906101f3919061282d565b6105db565b005b34801561020657600080fd5b50610221600480360381019061021c919061282d565b610632565b005b34801561022f57600080fd5b5061024a60048036038101906102459190612738565b610689565b60405161025791906127a6565b60405180910390f35b61026861070f565b005b34801561027657600080fd5b50610291600480360381019061028c9190612880565b61095a565b60405161029e91906128bc565b60405180910390f35b3480156102b357600080fd5b506102ce60048036038101906102c99190612880565b610a11565b6040516102db9190612a63565b60405180910390f35b3480156102f057600080fd5b506102f9610cb8565b60405161030691906126e0565b60405180910390f35b34801561031b57600080fd5b5061033660048036038101906103319190612ab1565b610d4a565b005b34801561034457600080fd5b5061035f600480360381019061035a9190612738565b610d9f565b60405161036c9190612635565b60405180910390f35b34801561038157600080fd5b5061039c60048036038101906103979190612c26565b610df7565b005b6103b860048036038101906103b3919061282d565b610e50565b005b3480156103c657600080fd5b506103e160048036038101906103dc9190612738565b610e60565b6040516103ee91906126e0565b60405180910390f35b34801561040357600080fd5b5061041e60048036038101906104199190612ca9565b610f72565b60405161042b9190612635565b60405180910390f35b60007fb45a3c0e000000000000000000000000000000000000000000000000000000007bffffffffffffffffffffffffffffffffffffffffffffffffffffffff1916827bffffffffffffffffffffffffffffffffffffffffffffffffffffffff191614806104a757506104a682611006565b5b9050919050565b6060600080546104bd90612d18565b80601f01602080910402602001604051908101604052809291908181526020018280546104e990612d18565b80156105365780601f1061050b57610100808354040283529160200191610536565b820191906000526020600020905b81548152906001019060200180831161051957829003601f168201915b5050505050905090565b600061054b826110e8565b6004600083815260200190815260200160002060009054906101000a900473ffffffffffffffffffffffffffffffffffffffff169050919050565b600760009054906101000a900460ff16156105cd576040517fbd291a9500000000000000000000000000000000000000000000000000000000815260040160405180910390fd5b6105d78282611133565b5050565b600760009054906101000a900460ff1615610622576040517fbd291a9500000000000000000000000000000000000000000000000000000000815260040160405180910390fd5b61062d83838361124a565b505050565b600760009054906101000a900460ff1615610679576040517fbd291a9500000000000000000000000000000000000000000000000000000000815260040160405180910390fd5b6106848383836112aa565b505050565b600080610695836112ca565b9050600073ffffffffffffffffffffffffffffffffffffffff168173ffffffffffffffffffffffffffffffffffffffff1603610706576040517f08c379a00000000000000000000000000000000000000000000000000000000081526004016106fd90612d95565b60405180910390fd5b80915050919050565b600061071b6008611307565b905060006040518060400160405280600581526020017f545249414c000000000000000000000000000000000000000000000000000000815250905060006040518060400160405280600281526020017f313600000000000000000000000000000000000000000000000000000000000081525090506000600a83600b6040516020016107aa93929190612e89565b60405160208183030381529060405290506107dd6040518060600160405280602b8152602001613e74602b913985611315565b6000610813846107ec846113b1565b856040516020016107ff93929190613036565b6040516020818303038152906040526113b1565b905060008160405160200161082891906130df565b60405160208183030381529060405290506108433387611548565b61084d8682611566565b600760019054906101000a900460ff161561089a577f032bc66be43dbccb7487781d168eb7bda224628a3b2c3388bdf69b532a3a16118660405161089191906128bc565b60405180910390a15b60006108a53361095a565b90506108e66040518060400160405280600981526020017f436f756e743a3a3a3a000000000000000000000000000000000000000000000081525082611315565b86600960003373ffffffffffffffffffffffffffffffffffffffff1673ffffffffffffffffffffffffffffffffffffffff16815260200190815260200160002060006001846109359190613130565b81526020019081526020016000208190555061095160086115d3565b50505050505050565b60008073ffffffffffffffffffffffffffffffffffffffff168273ffffffffffffffffffffffffffffffffffffffff16036109ca576040517f08c379a00000000000000000000000000000000000000000000000000000000081526004016109c1906131d6565b60405180910390fd5b600360008373ffffffffffffffffffffffffffffffffffffffff1673ffffffffffffffffffffffffffffffffffffffff168152602001908152602001600020549050919050565b60606000610a1e8361095a565b905060008103610a63576040517f08c379a0000000000000000000000000000000000000000000000000000000008152600401610a5a90613242565b60405180910390fd5b610a6c816115e9565b60008167ffffffffffffffff811115610a8857610a87612afb565b5b604051908082528060200260200182016040528015610ac157816020015b610aae612559565b815260200190600190039081610aa65790505b50905060005b82811015610cad576000600960008773ffffffffffffffffffffffffffffffffffffffff1673ffffffffffffffffffffffffffffffffffffffff16815260200190815260200160002060008381526020019081526020016000205490506000604051806020016040528060008152509050600060405180602001604052806000815250905060006040518060200160405280600081525090503073ffffffffffffffffffffffffffffffffffffffff166306fdde036040518163ffffffff1660e01b8152600401600060405180830381865afa158015610bab573d6000803e3d6000fd5b505050506040513d6000823e3d601f19601f82011682018060405250810190610bd49190613303565b92503073ffffffffffffffffffffffffffffffffffffffff166395d89b416040518163ffffffff1660e01b8152600401600060405180830381865afa158015610c21573d6000803e3d6000fd5b505050506040513d6000823e3d601f19601f82011682018060405250810190610c4a9190613303565b9150610c5584610e60565b9050604051806080016040528085815260200184815260200183815260200182815250868681518110610c8b57610c8a61334c565b5b6020026020010181905250505050508080610ca59061337b565b915050610ac7565b508092505050919050565b606060018054610cc790612d18565b80601f0160208091040260200160405190810160405280929190818152602001828054610cf390612d18565b8015610d405780601f10610d1557610100808354040283529160200191610d40565b820191906000526020600020905b815481529060010190602001808311610d2357829003601f168201915b5050505050905090565b600760009054906101000a900460ff1615610d91576040517fbd291a9500000000000000000000000000000000000000000000000000000000815260040160405180910390fd5b610d9b8282611682565b5050565b6000610daa82611698565b610de0576040517fae9a63f500000000000000000000000000000000000000000000000000000000815260040160405180910390fd5b600760009054906101000a900460ff169050919050565b600760009054906101000a900460ff1615610e3e576040517fbd291a9500000000000000000000000000000000000000000000000000000000815260040160405180910390fd5b610e4a848484846116d9565b50505050565b610e5b83838361173b565b505050565b6060610e6b826110e8565b6000600660008481526020019081526020016000208054610e8b90612d18565b80601f0160208091040260200160405190810160405280929190818152602001828054610eb790612d18565b8015610f045780601f10610ed957610100808354040283529160200191610f04565b820191906000526020600020905b815481529060010190602001808311610ee757829003601f168201915b505050505090506000610f15611a34565b90506000815103610f2a578192505050610f6d565b600082511115610f5f578082604051602001610f479291906133c3565b60405160208183030381529060405292505050610f6d565b610f6884611a4b565b925050505b919050565b6000600560008473ffffffffffffffffffffffffffffffffffffffff1673ffffffffffffffffffffffffffffffffffffffff16815260200190815260200160002060008373ffffffffffffffffffffffffffffffffffffffff1673ffffffffffffffffffffffffffffffffffffffff16815260200190815260200160002060009054906101000a900460ff16905092915050565b60007f80ac58cd000000000000000000000000000000000000000000000000000000007bffffffffffffffffffffffffffffffffffffffffffffffffffffffff1916827bffffffffffffffffffffffffffffffffffffffffffffffffffffffff191614806110d157507f5b5e139f000000000000000000000000000000000000000000000000000000007bffffffffffffffffffffffffffffffffffffffffffffffffffffffff1916827bffffffffffffffffffffffffffffffffffffffffffffffffffffffff1916145b806110e157506110e082611ab3565b5b9050919050565b6110f181611698565b611130576040517f08c379a000000000000000000000000000000000000000000000000000000000815260040161112790612d95565b60405180910390fd5b50565b600061113e82610689565b90508073ffffffffffffffffffffffffffffffffffffffff168373ffffffffffffffffffffffffffffffffffffffff16036111ae576040517f08c379a00000000000000000000000000000000000000000000000000000000081526004016111a590613459565b60405180910390fd5b8073ffffffffffffffffffffffffffffffffffffffff166111cd611b1d565b73ffffffffffffffffffffffffffffffffffffffff1614806111fc57506111fb816111f6611b1d565b610f72565b5b61123b576040517f08c379a0000000000000000000000000000000000000000000000000000000008152600401611232906134eb565b60405180910390fd5b6112458383611b25565b505050565b61125b611255611b1d565b82611bde565b61129a576040517f08c379a00000000000000000000000000000000000000000000000000000000081526004016112919061357d565b60405180910390fd5b6112a583838361173b565b505050565b6112c583838360405180602001604052806000815250610df7565b505050565b60006002600083815260200190815260200160002060009054906101000a900473ffffffffffffffffffffffffffffffffffffffff169050919050565b600081600001549050919050565b6113ad828260405160240161132b92919061359d565b6040516020818303038152906040527fb60e72cc000000000000000000000000000000000000000000000000000000007bffffffffffffffffffffffffffffffffffffffffffffffffffffffff19166020820180517bffffffffffffffffffffffffffffffffffffffffffffffffffffffff8381831617835250505050611c73565b5050565b6060600082519050600081036113d95760405180602001604052806000815250915050611543565b600060036002836113ea91906135cd565b6113f49190613630565b60046114009190613661565b9050600060208261141191906135cd565b67ffffffffffffffff81111561142a57611429612afb565b5b6040519080825280601f01601f19166020018201604052801561145c5781602001600182028036833780820191505090505b5090506000604051806060016040528060408152602001613e34604091399050600181016020830160005b868110156115005760038101905062ffffff818a015116603f8160121c168401518060081b905060ff603f83600c1c1686015116810190508060081b905060ff603f8360061c1686015116810190508060081b905060ff603f831686015116810190508060e01b90508084526004840193505050611487565b50600386066001811461151a576002811461152a57611535565b613d3d60f01b6002830352611535565b603d60f81b60018303525b508484525050819450505050505b919050565b611562828260405180602001604052806000815250611c9c565b5050565b61156f82611698565b6115ae576040517f08c379a00000000000000000000000000000000000000000000000000000000081526004016115a590613715565b60405180910390fd5b806006600084815260200190815260200160002090816115ce91906138cc565b505050565b6001816000016000828254019250508190555050565b61167f816040516024016115fd91906128bc565b6040516020818303038152906040527ff82c50f1000000000000000000000000000000000000000000000000000000007bffffffffffffffffffffffffffffffffffffffffffffffffffffffff19166020820180517bffffffffffffffffffffffffffffffffffffffffffffffffffffffff8381831617835250505050611c73565b50565b61169461168d611b1d565b8383611cf7565b5050565b60008073ffffffffffffffffffffffffffffffffffffffff166116ba836112ca565b73ffffffffffffffffffffffffffffffffffffffff1614159050919050565b6116ea6116e4611b1d565b83611bde565b611729576040517f08c379a00000000000000000000000000000000000000000000000000000000081526004016117209061357d565b60405180910390fd5b61173584848484611e63565b50505050565b8273ffffffffffffffffffffffffffffffffffffffff1661175b82610689565b73ffffffffffffffffffffffffffffffffffffffff16146117b1576040517f08c379a00000000000000000000000000000000000000000000000000000000081526004016117a890613a10565b60405180910390fd5b600073ffffffffffffffffffffffffffffffffffffffff168273ffffffffffffffffffffffffffffffffffffffff1603611820576040517f08c379a000000000000000000000000000000000000000000000000000000000815260040161181790613aa2565b60405180910390fd5b61182d8383836001611ebf565b8273ffffffffffffffffffffffffffffffffffffffff1661184d82610689565b73ffffffffffffffffffffffffffffffffffffffff16146118a3576040517f08c379a000000000000000000000000000000000000000000000000000000000815260040161189a90613a10565b60405180910390fd5b6004600082815260200190815260200160002060006101000a81549073ffffffffffffffffffffffffffffffffffffffff02191690556001600360008573ffffffffffffffffffffffffffffffffffffffff1673ffffffffffffffffffffffffffffffffffffffff168152602001908152602001600020600082825403925050819055506001600360008473ffffffffffffffffffffffffffffffffffffffff1673ffffffffffffffffffffffffffffffffffffffff16815260200190815260200160002060008282540192505081905550816002600083815260200190815260200160002060006101000a81548173ffffffffffffffffffffffffffffffffffffffff021916908373ffffffffffffffffffffffffffffffffffffffff160217905550808273ffffffffffffffffffffffffffffffffffffffff168473ffffffffffffffffffffffffffffffffffffffff167fddf252ad1be2c89b69c2b068fc378daa952ba7f163c4a11628f55a4df523b3ef60405160405180910390a4611a2f8383836001611f6b565b505050565b606060405180602001604052806000815250905090565b6060611a56826110e8565b6000611a60611a34565b90506000815111611a805760405180602001604052806000815250611aab565b80611a8a84611f71565b604051602001611a9b9291906133c3565b6040516020818303038152906040525b915050919050565b60007f01ffc9a7000000000000000000000000000000000000000000000000000000007bffffffffffffffffffffffffffffffffffffffffffffffffffffffff1916827bffffffffffffffffffffffffffffffffffffffffffffffffffffffff1916149050919050565b600033905090565b816004600083815260200190815260200160002060006101000a81548173ffffffffffffffffffffffffffffffffffffffff021916908373ffffffffffffffffffffffffffffffffffffffff160217905550808273ffffffffffffffffffffffffffffffffffffffff16611b9883610689565b73ffffffffffffffffffffffffffffffffffffffff167f8c5be1e5ebec7d5bd14f71427d1e84f3dd0314c0f7b2291e5b200ac8c7c3b92560405160405180910390a45050565b600080611bea83610689565b90508073ffffffffffffffffffffffffffffffffffffffff168473ffffffffffffffffffffffffffffffffffffffff161480611c2c5750611c2b8185610f72565b5b80611c6a57508373ffffffffffffffffffffffffffffffffffffffff16611c5284610540565b73ffffffffffffffffffffffffffffffffffffffff16145b91505092915050565b60008151905060006a636f6e736f6c652e6c6f679050602083016000808483855afa5050505050565b611ca6838361203f565b611cb3600084848461225c565b611cf2576040517f08c379a0000000000000000000000000000000000000000000000000000000008152600401611ce990613b34565b60405180910390fd5b505050565b8173ffffffffffffffffffffffffffffffffffffffff168373ffffffffffffffffffffffffffffffffffffffff1603611d65576040517f08c379a0000000000000000000000000000000000000000000000000000000008152600401611d5c90613ba0565b60405180910390fd5b80600560008573ffffffffffffffffffffffffffffffffffffffff1673ffffffffffffffffffffffffffffffffffffffff16815260200190815260200160002060008473ffffffffffffffffffffffffffffffffffffffff1673ffffffffffffffffffffffffffffffffffffffff16815260200190815260200160002060006101000a81548160ff0219169083151502179055508173ffffffffffffffffffffffffffffffffffffffff168373ffffffffffffffffffffffffffffffffffffffff167f17307eab39ab6107e8899845ad3d59bd9653f200f220920489ca2b5937696c3183604051611e569190612635565b60405180910390a3505050565b611e6e84848461173b565b611e7a8484848461225c565b611eb9576040517f08c379a0000000000000000000000000000000000000000000000000000000008152600401611eb090613b34565b60405180910390fd5b50505050565b600073ffffffffffffffffffffffffffffffffffffffff168473ffffffffffffffffffffffffffffffffffffffff161480611f265750600073ffffffffffffffffffffffffffffffffffffffff168373ffffffffffffffffffffffffffffffffffffffff16145b611f65576040517f08c379a0000000000000000000000000000000000000000000000000000000008152600401611f5c90613c58565b60405180910390fd5b50505050565b50505050565b606060006001611f80846123e3565b01905060008167ffffffffffffffff811115611f9f57611f9e612afb565b5b6040519080825280601f01601f191660200182016040528015611fd15781602001600182028036833780820191505090505b509050600082602001820190505b600115612034578080600190039150507f3031323334353637383961626364656600000000000000000000000000000000600a86061a8153600a858161202857612027613601565b5b04945060008503611fdf575b819350505050919050565b600073ffffffffffffffffffffffffffffffffffffffff168273ffffffffffffffffffffffffffffffffffffffff16036120ae576040517f08c379a00000000000000000000000000000000000000000000000000000000081526004016120a590613cc4565b60405180910390fd5b6120b781611698565b156120f7576040517f08c379a00000000000000000000000000000000000000000000000000000000081526004016120ee90613d30565b60405180910390fd5b612105600083836001611ebf565b61210e81611698565b1561214e576040517f08c379a000000000000000000000000000000000000000000000000000000000815260040161214590613d30565b60405180910390fd5b6001600360008473ffffffffffffffffffffffffffffffffffffffff1673ffffffffffffffffffffffffffffffffffffffff16815260200190815260200160002060008282540192505081905550816002600083815260200190815260200160002060006101000a81548173ffffffffffffffffffffffffffffffffffffffff021916908373ffffffffffffffffffffffffffffffffffffffff160217905550808273ffffffffffffffffffffffffffffffffffffffff16600073ffffffffffffffffffffffffffffffffffffffff167fddf252ad1be2c89b69c2b068fc378daa952ba7f163c4a11628f55a4df523b3ef60405160405180910390a4612258600083836001611f6b565b5050565b600061227d8473ffffffffffffffffffffffffffffffffffffffff16612536565b156123d6578373ffffffffffffffffffffffffffffffffffffffff1663150b7a026122a6611b1d565b8786866040518563ffffffff1660e01b81526004016122c89493929190613da5565b6020604051808303816000875af192505050801561230457506040513d601f19601f820116820180604052508101906123019190613e06565b60015b612386573d8060008114612334576040519150601f19603f3d011682016040523d82523d6000602084013e612339565b606091505b50600081510361237e576040517f08c379a000000000000000000000000000000000000000000000000000000000815260040161237590613b34565b60405180910390fd5b805181602001fd5b63150b7a0260e01b7bffffffffffffffffffffffffffffffffffffffffffffffffffffffff1916817bffffffffffffffffffffffffffffffffffffffffffffffffffffffff1916149150506123db565b600190505b949350505050565b600080600090507a184f03e93ff9f4daa797ed6e38ed64bf6a1f0100000000000000008310612441577a184f03e93ff9f4daa797ed6e38ed64bf6a1f010000000000000000838161243757612436613601565b5b0492506040810190505b6d04ee2d6d415b85acef8100000000831061247e576d04ee2d6d415b85acef8100000000838161247457612473613601565b5b0492506020810190505b662386f26fc1000083106124ad57662386f26fc1000083816124a3576124a2613601565b5b0492506010810190505b6305f5e10083106124d6576305f5e10083816124cc576124cb613601565b5b0492506008810190505b61271083106124fb5761271083816124f1576124f0613601565b5b0492506004810190505b6064831061251e576064838161251457612513613601565b5b0492506002810190505b600a831061252d576001810190505b80915050919050565b6000808273ffffffffffffffffffffffffffffffffffffffff163b119050919050565b6040518060800160405280600081526020016060815260200160608152602001606081525090565b6000604051905090565b600080fd5b600080fd5b60007fffffffff0000000000000000000000000000000000000000000000000000000082169050919050565b6125ca81612595565b81146125d557600080fd5b50565b6000813590506125e7816125c1565b92915050565b6000602082840312156126035761260261258b565b5b6000612611848285016125d8565b91505092915050565b60008115159050919050565b61262f8161261a565b82525050565b600060208201905061264a6000830184612626565b92915050565b600081519050919050565b600082825260208201905092915050565b60005b8381101561268a57808201518184015260208101905061266f565b60008484015250505050565b6000601f19601f8301169050919050565b60006126b282612650565b6126bc818561265b565b93506126cc81856020860161266c565b6126d581612696565b840191505092915050565b600060208201905081810360008301526126fa81846126a7565b905092915050565b6000819050919050565b61271581612702565b811461272057600080fd5b50565b6000813590506127328161270c565b92915050565b60006020828403121561274e5761274d61258b565b5b600061275c84828501612723565b91505092915050565b600073ffffffffffffffffffffffffffffffffffffffff82169050919050565b600061279082612765565b9050919050565b6127a081612785565b82525050565b60006020820190506127bb6000830184612797565b92915050565b6127ca81612785565b81146127d557600080fd5b50565b6000813590506127e7816127c1565b92915050565b600080604083850312156128045761280361258b565b5b6000612812858286016127d8565b925050602061282385828601612723565b9150509250929050565b6000806000606084860312156128465761284561258b565b5b6000612854868287016127d8565b9350506020612865868287016127d8565b925050604061287686828701612723565b9150509250925092565b6000602082840312156128965761289561258b565b5b60006128a4848285016127d8565b91505092915050565b6128b681612702565b82525050565b60006020820190506128d160008301846128ad565b92915050565b600081519050919050565b600082825260208201905092915050565b6000819050602082019050919050565b61290c81612702565b82525050565b600082825260208201905092915050565b600061292e82612650565b6129388185612912565b935061294881856020860161266c565b61295181612696565b840191505092915050565b60006080830160008301516129746000860182612903565b506020830151848203602086015261298c8282612923565b915050604083015184820360408601526129a68282612923565b915050606083015184820360608601526129c08282612923565b9150508091505092915050565b60006129d9838361295c565b905092915050565b6000602082019050919050565b60006129f9826128d7565b612a0381856128e2565b935083602082028501612a15856128f3565b8060005b85811015612a515784840389528151612a3285826129cd565b9450612a3d836129e1565b925060208a01995050600181019050612a19565b50829750879550505050505092915050565b60006020820190508181036000830152612a7d81846129ee565b905092915050565b612a8e8161261a565b8114612a9957600080fd5b50565b600081359050612aab81612a85565b92915050565b60008060408385031215612ac857612ac761258b565b5b6000612ad6858286016127d8565b9250506020612ae785828601612a9c565b9150509250929050565b600080fd5b600080fd5b7f4e487b7100000000000000000000000000000000000000000000000000000000600052604160045260246000fd5b612b3382612696565b810181811067ffffffffffffffff82111715612b5257612b51612afb565b5b80604052505050565b6000612b65612581565b9050612b718282612b2a565b919050565b600067ffffffffffffffff821115612b9157612b90612afb565b5b612b9a82612696565b9050602081019050919050565b82818337600083830152505050565b6000612bc9612bc484612b76565b612b5b565b905082815260208101848484011115612be557612be4612af6565b5b612bf0848285612ba7565b509392505050565b600082601f830112612c0d57612c0c612af1565b5b8135612c1d848260208601612bb6565b91505092915050565b60008060008060808587031215612c4057612c3f61258b565b5b6000612c4e878288016127d8565b9450506020612c5f878288016127d8565b9350506040612c7087828801612723565b925050606085013567ffffffffffffffff811115612c9157612c90612590565b5b612c9d87828801612bf8565b91505092959194509250565b60008060408385031215612cc057612cbf61258b565b5b6000612cce858286016127d8565b9250506020612cdf858286016127d8565b9150509250929050565b7f4e487b7100000000000000000000000000000000000000000000000000000000600052602260045260246000fd5b60006002820490506001821680612d3057607f821691505b602082108103612d4357612d42612ce9565b5b50919050565b7f4552433732313a20696e76616c696420746f6b656e2049440000000000000000600082015250565b6000612d7f60188361265b565b9150612d8a82612d49565b602082019050919050565b60006020820190508181036000830152612dae81612d72565b9050919050565b600081905092915050565b60008190508160005260206000209050919050565b60008154612de281612d18565b612dec8186612db5565b94506001821660008114612e075760018114612e1c57612e4f565b60ff1983168652811515820286019350612e4f565b612e2585612dc0565b60005b83811015612e4757815481890152600182019150602081019050612e28565b838801955050505b50505092915050565b6000612e6382612650565b612e6d8185612db5565b9350612e7d81856020860161266c565b80840191505092915050565b6000612e958286612dd5565b9150612ea18285612e58565b9150612ead8284612dd5565b9150819050949350505050565b7f7b226e616d65223a202200000000000000000000000000000000000000000000600082015250565b6000612ef0600a83612db5565b9150612efb82612eba565b600a82019050919050565b7f222c20226465736372697074696f6e223a2022545249414c204d656d6265727360008201527f686970204e4654222c2022696d616765223a2022646174613a696d6167652f7360208201527f76672b786d6c3b6261736536342c000000000000000000000000000000000000604082015250565b6000612f88604e83612db5565b9150612f9382612f06565b604e82019050919050565b7f222c226c656e677468223a220000000000000000000000000000000000000000600082015250565b6000612fd4600c83612db5565b9150612fdf82612f9e565b600c82019050919050565b7f227d000000000000000000000000000000000000000000000000000000000000600082015250565b6000613020600283612db5565b915061302b82612fea565b600282019050919050565b600061304182612ee3565b915061304d8286612e58565b915061305882612f7b565b91506130648285612e58565b915061306f82612fc7565b915061307b8284612e58565b915061308682613013565b9150819050949350505050565b7f646174613a6170706c69636174696f6e2f6a736f6e3b6261736536342c000000600082015250565b60006130c9601d83612db5565b91506130d482613093565b601d82019050919050565b60006130ea826130bc565b91506130f68284612e58565b915081905092915050565b7f4e487b7100000000000000000000000000000000000000000000000000000000600052601160045260246000fd5b600061313b82612702565b915061314683612702565b925082820390508181111561315e5761315d613101565b5b92915050565b7f4552433732313a2061646472657373207a65726f206973206e6f74206120766160008201527f6c6964206f776e65720000000000000000000000000000000000000000000000602082015250565b60006131c060298361265b565b91506131cb82613164565b604082019050919050565b600060208201905081810360008301526131ef816131b3565b9050919050565b7f446f6e2774206861766520746f6b656e00000000000000000000000000000000600082015250565b600061322c60108361265b565b9150613237826131f6565b602082019050919050565b6000602082019050818103600083015261325b8161321f565b9050919050565b600067ffffffffffffffff82111561327d5761327c612afb565b5b61328682612696565b9050602081019050919050565b60006132a66132a184613262565b612b5b565b9050828152602081018484840111156132c2576132c1612af6565b5b6132cd84828561266c565b509392505050565b600082601f8301126132ea576132e9612af1565b5b81516132fa848260208601613293565b91505092915050565b6000602082840312156133195761331861258b565b5b600082015167ffffffffffffffff81111561333757613336612590565b5b613343848285016132d5565b91505092915050565b7f4e487b7100000000000000000000000000000000000000000000000000000000600052603260045260246000fd5b600061338682612702565b91507fffffffffffffffffffffffffffffffffffffffffffffffffffffffffffffffff82036133b8576133b7613101565b5b600182019050919050565b60006133cf8285612e58565b91506133db8284612e58565b91508190509392505050565b7f4552433732313a20617070726f76616c20746f2063757272656e74206f776e6560008201527f7200000000000000000000000000000000000000000000000000000000000000602082015250565b600061344360218361265b565b915061344e826133e7565b604082019050919050565b6000602082019050818103600083015261347281613436565b9050919050565b7f4552433732313a20617070726f76652063616c6c6572206973206e6f7420746f60008201527f6b656e206f776e6572206f7220617070726f76656420666f7220616c6c000000602082015250565b60006134d5603d8361265b565b91506134e082613479565b604082019050919050565b60006020820190508181036000830152613504816134c8565b9050919050565b7f4552433732313a2063616c6c6572206973206e6f7420746f6b656e206f776e6560008201527f72206f7220617070726f76656400000000000000000000000000000000000000602082015250565b6000613567602d8361265b565b91506135728261350b565b604082019050919050565b600060208201905081810360008301526135968161355a565b9050919050565b600060408201905081810360008301526135b781856126a7565b90506135c660208301846128ad565b9392505050565b60006135d882612702565b91506135e383612702565b92508282019050808211156135fb576135fa613101565b5b92915050565b7f4e487b7100000000000000000000000000000000000000000000000000000000600052601260045260246000fd5b600061363b82612702565b915061364683612702565b92508261365657613655613601565b5b828204905092915050565b600061366c82612702565b915061367783612702565b925082820261368581612702565b9150828204841483151761369c5761369b613101565b5b5092915050565b7f45524337323155524953746f726167653a2055524920736574206f66206e6f6e60008201527f6578697374656e7420746f6b656e000000000000000000000000000000000000602082015250565b60006136ff602e8361265b565b915061370a826136a3565b604082019050919050565b6000602082019050818103600083015261372e816136f2565b9050919050565b60006020601f8301049050919050565b600082821b905092915050565b6000600883026137827fffffffffffffffffffffffffffffffffffffffffffffffffffffffffffffffff82613745565b61378c8683613745565b95508019841693508086168417925050509392505050565b6000819050919050565b60006137c96137c46137bf84612702565b6137a4565b612702565b9050919050565b6000819050919050565b6137e3836137ae565b6137f76137ef826137d0565b848454613752565b825550505050565b600090565b61380c6137ff565b6138178184846137da565b505050565b5b8181101561383b57613830600082613804565b60018101905061381d565b5050565b601f8211156138805761385181612dc0565b61385a84613735565b81016020851015613869578190505b61387d61387585613735565b83018261381c565b50505b505050565b600082821c905092915050565b60006138a360001984600802613885565b1980831691505092915050565b60006138bc8383613892565b9150826002028217905092915050565b6138d582612650565b67ffffffffffffffff8111156138ee576138ed612afb565b5b6138f88254612d18565b61390382828561383f565b600060209050601f8311600181146139365760008415613924578287015190505b61392e85826138b0565b865550613996565b601f19841661394486612dc0565b60005b8281101561396c57848901518255600182019150602085019450602081019050613947565b868310156139895784890151613985601f891682613892565b8355505b6001600288020188555050505b505050505050565b7f4552433732313a207472616e736665722066726f6d20696e636f72726563742060008201527f6f776e6572000000000000000000000000000000000000000000000000000000602082015250565b60006139fa60258361265b565b9150613a058261399e565b604082019050919050565b60006020820190508181036000830152613a29816139ed565b9050919050565b7f4552433732313a207472616e7366657220746f20746865207a65726f2061646460008201527f7265737300000000000000000000000000000000000000000000000000000000602082015250565b6000613a8c60248361265b565b9150613a9782613a30565b604082019050919050565b60006020820190508181036000830152613abb81613a7f565b9050919050565b7f4552433732313a207472616e7366657220746f206e6f6e20455243373231526560008201527f63656976657220696d706c656d656e7465720000000000000000000000000000602082015250565b6000613b1e60328361265b565b9150613b2982613ac2565b604082019050919050565b60006020820190508181036000830152613b4d81613b11565b9050919050565b7f4552433732313a20617070726f766520746f2063616c6c657200000000000000600082015250565b6000613b8a60198361265b565b9150613b9582613b54565b602082019050919050565b60006020820190508181036000830152613bb981613b7d565b9050919050565b7f54686973206120536f756c626f756e6420746f6b656e2e2049742063616e6e6f60008201527f74206265207472616e736665727265642e2049742063616e206f6e6c7920626560208201527f206275726e65642062792074686520746f6b656e206f776e65722e0000000000604082015250565b6000613c42605b8361265b565b9150613c4d82613bc0565b606082019050919050565b60006020820190508181036000830152613c7181613c35565b9050919050565b7f4552433732313a206d696e7420746f20746865207a65726f2061646472657373600082015250565b6000613cae60208361265b565b9150613cb982613c78565b602082019050919050565b60006020820190508181036000830152613cdd81613ca1565b9050919050565b7f4552433732313a20746f6b656e20616c7265616479206d696e74656400000000600082015250565b6000613d1a601c8361265b565b9150613d2582613ce4565b602082019050919050565b60006020820190508181036000830152613d4981613d0d565b9050919050565b600081519050919050565b600082825260208201905092915050565b6000613d7782613d50565b613d818185613d5b565b9350613d9181856020860161266c565b613d9a81612696565b840191505092915050565b6000608082019050613dba6000830187612797565b613dc76020830186612797565b613dd460408301856128ad565b8181036060830152613de68184613d6c565b905095945050505050565b600081519050613e00816125c1565b92915050565b600060208284031215613e1c57613e1b61258b565b5b6000613e2a84828501613df1565b9150509291505056fe4142434445464748494a4b4c4d4e4f505152535455565758595a6162636465666768696a6b6c6d6e6f707172737475767778797a303132333435363738392b2f5265676973746572696e67206f6e2074686520636f6e7472616374207769746820746f6b656e4944202564a2646970667358221220f6502d6b4a5a37482a34d36e35733d34c2f54fe6f5220cb5949a6b99b462679264736f6c634300081100333c73766720786d6c6e733d22687474703a2f2f7777772e77332e6f72672f323030302f737667222077696474683d2232373022206865696768743d22323730222066696c6c3d226e6f6e65223e3c706174682066696c6c3d2275726c282342292220643d224d302030683237307632373048307a222f3e3c646566733e3c66696c7465722069643d22412220636f6c6f722d696e746572706f6c6174696f6e2d66696c746572733d2273524742222066696c746572556e6974733d227573657253706163654f6e55736522206865696768743d22323730222077696474683d22323730223e3c666544726f70536861646f772064783d2230222064793d22312220737464446576696174696f6e3d22322220666c6f6f642d6f7061636974793d222e323235222077696474683d223230302522206865696768743d2232303025222f3e3c2f66696c7465723e3c2f646566733e3c7061746820643d224d37322e3836332034322e393439632d2e3636382d2e3338372d312e3432362d2e35392d322e3139372d2e3539732d312e3532392e3230342d322e3139372e35396c2d31302e30383120362e3033322d362e383520332e3933342d31302e30383120362e303332632d2e3636382e3338372d312e3432362e35392d322e3139372e3539732d312e3532392d2e3230342d322e3139372d2e35396c2d382e3031332d342e37323161342e353220342e35322030203020312d312e3538392d312e363136632d2e3338342d2e3636352d2e3539342d312e3431382d2e3630382d322e313837762d392e3331632d2e3031332d2e3737352e3138352d312e3533382e3537322d322e32303861342e323520342e323520302030203120312e3632352d312e3539356c372e3838342d342e3539632e3636382d2e33383720312e3432362d2e353920322e3139372d2e353973312e3532392e32303420322e3139372e35396c372e38383420342e353961342e353220342e353220302030203120312e35383920312e363136632e3338342e3636352e35393420312e3431382e36303820322e31383776362e3033326c362e38352d342e303635762d362e303332632e3031332d2e3737352d2e3138352d312e3533382d2e3537322d322e32303861342e323520342e32352030203020302d312e3632352d312e3539354c34312e3435362032342e3539632d2e3636382d2e3338372d312e3432362d2e35392d322e3139372d2e3539732d312e3532392e3230342d322e3139372e35396c2d31342e38363420382e36353561342e323520342e32352030203020302d312e36323520312e353935632d2e3338372e36372d2e35383520312e3433342d2e35373220322e3230387631372e343431632d2e3031332e3737352e31383520312e3533382e35373220322e32303861342e323520342e323520302030203020312e36323520312e3539356c31342e38363420382e363535632e3636382e33383720312e3432362e353920322e3139372e353973312e3532392d2e32303420322e3139372d2e35396c31302e3038312d352e39303120362e38352d342e3036352031302e3038312d352e393031632e3636382d2e33383720312e3432362d2e353920322e3139372d2e353973312e3532392e32303420322e3139372e35396c372e38383420342e353961342e353220342e353220302030203120312e35383920312e363136632e3338342e3636352e35393420312e3431382e36303820322e31383776392e333131632e3031332e3737352d2e31383520312e3533382d2e35373220322e32303861342e323520342e32352030203020312d312e36323520312e3539356c2d372e38383420342e373231632d2e3636382e3338372d312e3432362e35392d322e3139372e3539732d312e3532392d2e3230342d322e3139372d2e35396c2d372e3838342d342e353961342e353220342e35322030203020312d312e3538392d312e363136632d2e3338352d2e3636352d2e3539342d312e3431382d2e3630382d322e313837762d362e3033326c2d362e383520342e30363576362e303332632d2e3031332e3737352e31383520312e3533382e35373220322e32303861342e323520342e323520302030203020312e36323520312e3539356c31342e38363420382e363535632e3636382e33383720312e3432362e353920322e3139372e353973312e3532392d2e32303420322e3139372d2e35396c31342e3836342d382e363535632e3635372d2e33393420312e3230342d2e393520312e3538392d312e363136732e3539342d312e3431382e3630392d322e3138375635352e353338632e3031332d2e3737352d2e3138352d312e3533382d2e3537322d322e32303861342e323520342e32352030203020302d312e3632352d312e3539356c2d31342e3939332d382e3738367a222066696c6c3d2223666666222f3e3c646566733e3c6c696e6561724772616469656e742069643d2242222078313d2230222079313d2230222078323d22323730222079323d2232373022206772616469656e74556e6974733d227573657253706163654f6e557365223e3c73746f702073746f702d636f6c6f723d2223636235656565222f3e3c73746f70206f66667365743d2231222073746f702d636f6c6f723d2223306364376534222073746f702d6f7061636974793d222e3939222f3e3c2f6c696e6561724772616469656e743e3c2f646566733e3c7465787420783d2233322e352220793d223233312220666f6e742d73697a653d223237222066696c6c3d2223666666222066696c7465723d2275726c282341292220666f6e742d66616d696c793d22506c7573204a616b617274612053616e732c44656a6156752053616e732c4e6f746f20436f6c6f7220456d6f6a692c4170706c6520436f6c6f7220456d6f6a692c73616e732d73657269662220666f6e742d7765696768743d22626f6c64223e",
  "linkReferences": {},
  "deployedLinkReferences": {}
}